:03000000020056A5
:0C005600787FE4F6D8FD75812002009D43
:10018300D2FF75D803C2DCC2DB0000000000D2DA64
:100193000000000000000000000075A2AA75A3AAD9
:1001A300D29212024775CDFC85CDCB75CC6685CC3A
:0801B300CAD2CAD2ADD2AF22BC
:01001A0022C3
:1002470053A33C43A38275A50043A52A53A20F439A
:09025700A2A053A4CF43A420226D
:06028E0001140101130040
:1001BB0012018312001AE5F7543F44C0F5F7C295BC
:1001CB007FF47E0112020BC290C294D292D2FF1224
:0D01DB0002601201E812002112002280F0E3
:10026000300104C2010513C3E51394057480948022
:070270004005D2FF12022D30
:010277002264
:1001E800AF167E00EF6401700AE51464017004C262
:1001F80092800CEF64014E7006E5147002D292E40E
:03020800F51622C6
:0100210022BC
:0100220022BB
:10020B00E4FDFCC3ED9FEC9E5017E4FBFAD2FF0B11
:10021B00BB00010ABA03F6BBE8F30DBD00010C806D
:01022B00E2F0
:01022C0022AF
:0302940001150051
:10022D0075A28A0000000000209205751501800658
:09023D00851516E4F51575A2AA59
:010246002295
:03001E008F172217
:04001600751819221E
:03000300020026D2
:03002600C289325A
:03000B0002002EC2
:03002E00C28D324E
:0300130002003EAA
:03003E00C28B3240
:03001B000200469A
:03004600C28F3234
:03002300020006D2
:05000600C299C298320E
:03002B0002000EC2
:05000E00C2CFD2013257
:03003B0002002997
:0100290032A4
:0300430002002A8E
:01002A0032A3
:03004B000200317F
:01003100329C
:0300530002003276
:01003200329B
:0A029700080801020408102040804E
:1000E200EDFB7A0064017004C296D291EB64024A7D
:1000F2007004D296C291E5085F6004D2948002C275
:1001020094E5095F6004D2B48002C2B4E50A5F607C
:1001120004D2B58002C2B5E50B5F6004D2978002BB
:10012200C297E50C5F6004D2B68002C2B6E50D5FED
:100132006004D2928002C292E50E5F6004D2B28065
:0601420002C2B2C29322CA
:040148008F108D1176
:10014C00E4F512AF12E4FCFDFE7B807A84791EF894
:10015C00D312027840207D02AF101200E27F017EA4
:10016C000012020B7D01AF111200E27F017E001222
:06017C00020B051280CD0C
:01018200225A
:100062000201BBE493A3F8E493A34003F68001F2F8
:1000720008DFF48029E493A3F85407240CC8C3339F
:10008200C4540F4420C8834004F456800146F6DF6E
:10009200E4800B010204081020408090028EE47E6E
:1000A200019360BCA3FF543F30E509541FFEE49363
:1000B200A360010ECF54C025E060A840B8E493A32A
:1000C200FAE493A3F8E493A3C8C582C8CAC583CA55
:1000D200F0A3C8C582C8CAC583CADFE9DEE780BE0D
:0102A100005C
:10027800EB9FF5F0EA9E42F0E99D42F0EC6480C8FD
:0602880064809845F0229D
:00000001FF
