:0300000002003BC0
:0C003B00787FE4F6D8FD75812002008279
:10013F00D2FF75D803C2DCC2DB0000000000D2DAA8
:10014F000000000000000000000075A2AA75A3AA1D
:10015F00D29212019A75CDF185CDCB75CC9A85CC03
:08016F00CAD2CAD2ADD2AF2200
:0100320022AB
:10019A0053A33C43A38275A50043A52A53A20F4348
:0901AA00A2A053A4CF43A420221B
:03002B00010800C9
:1000C70012013F120032E5F7543F44C0F5F7C295DD
:1000D7007FF47E01120009D290D2FF12017712013C
:1000E700DE1201EF1201F0E4F50EF50FAE0EAF0FC1
:1000F700EE3395E0FDFC7B407A0D79037800D3124F
:1001070001B340D5C296D291D294C2B4C2B5C297B8
:10011700D292D2B6D2B2120003D296C291D294D260
:10012700B4D2B5D297D292D2B6C2B2120003050F9B
:08013700E50F70B8050E80B45D
:10017700300004C2000508C3E50894057480948024
:10018700401075A28A7F147E001200091201C975FA
:020197000C64F6
:010199002243
:0A01DE00E50B6401700375A2AA226C
:0101EF0022ED
:0101F00022EC
:06000300C2937F017E00A4
:10000900E4FDFCC3ED9FEC9E5017E4FBFAD2FF0B15
:10001900BB00010ABA03F6BBE8F30DBD00010C8071
:01002900E2F4
:01002A0022B3
:03002E00010A00C4
:1001C90075A28A209205750A018006850A0BE4F555
:0401D9000A75A2AA57
:0101DD0022FF
:0301EC008F0C2253
:0401E800750D192256
:100047000200C7E493A3F8E493A34003F68001F208
:1000570008DFF48029E493A3F85407240CC8C333BA
:10006700C4540F4420C8834004F456800146F6DF89
:10007700E4800B010204081020408090002BE47EEE
:10008700019360BCA3FF543F30E509541FFEE4937E
:10009700A360010ECF54C025E060A840B8E493A345
:1000A700FAE493A3F8E493A3C8C582C8CAC583CA70
:1000B700F0A3C8C582C8CAC583CADFE9DEE780BE28
:0100310000CE
:1001B300EB9FF5F0EA9E42F0E99D42F0EC6480C8C3
:0601C30064809845F02263
:00000001FF
