:0300000002003BC0
:0C003B00787FE4F6D8FD75812002008279
:10010400D2FF75D803C2DCC2DB0000000000D2DAE3
:100114000000000000000000000075A2AA75A3AA58
:10012400D29212015E75CDF185CDCB75CC9A85CC7A
:08013400CAD2CAD2ADD2AF223B
:010197002245
:10015E0053A33C43A38275A50043A52A53A20F4384
:09016E00A2A053A4CF43A4202257
:03018C0001080067
:1000C700120104120197E5F7543F44C0F5F7C295B2
:1000D7007FF47E0112013CD290C296D291D294D283
:1000E700B4D2B5D297D292D2B6C2B2C293D2FF12CD
:0D00F700000312002612019812019980F0FA
:10000300300004C2000508C3E50894057480948099
:10001300401075A28A7F147E0012013C120177758D
:020023000C646B
:0100250022B8
:0A002600E50B6401700375A2AA2225
:010198002244
:010199002243
:10013C00E4FDFCC3ED9FEC9E5017E4FBFAD2FF0BE1
:10014C00BB00010ABA03F6BBE8F30DBD00010C803D
:01015C00E2C0
:01015D00227F
:03018F00010A0062
:1001770075A28A209205750A018006850A0BE4F5A7
:040187000A75A2AAA9
:01018B002251
:030030008F0C2210
:04019300750D1922AB
:100047000200C7E493A3F8E493A34003F68001F208
:1000570008DFF48029E493A3F85407240CC8C333BA
:10006700C4540F4420C8834004F456800146F6DF89
:10007700E4800B010204081020408090018CE47E8C
:10008700019360BCA3FF543F30E509541FFEE4937E
:10009700A360010ECF54C025E060A840B8E493A345
:1000A700FAE493A3F8E493A3C8C582C8CAC583CA70
:1000B700F0A3C8C582C8CAC583CADFE9DEE780BE28
:01019200006C
:00000001FF
