:03000000020056A5
:0C005600787FE4F6D8FD75812002009D43
:1001FA00D2FF75D803C2DCC2DB0000000000D2DAED
:10020A000000000000000000000075A2AA75A3AA61
:10021A001202FB12033712032A75CDFC85CDCB756A
:0C022A00CC6685CCCAD2CAD2ADD2AF22BD
:01001A0022C3
:1002FB0053A33C43A38275A50043A52A53A20F43E6
:09030B00A2A053A4CF43A42022B8
:0D032A0053A2CF43A22053A3FC43A3022201
:0D03370053A5FC53A4CF53A33F53A2CF22E4
:0802C000011D00011C00C1003A
:10026E001201FA12001AE5F7543F44C0F5F7C29591
:10027E007FF47E0112029EC290C294C2921202FBC1
:10028E00D2FF12031412023612002112002280F045
:10031400300204C202051CC3E51C94057480948059
:05032400400312014836
:0103290022B1
:10023600E50C6401700812032AB292751EE8E50FF8
:100246006401701C1202FB751EE820000B7D717F95
:100256003F1201A5D200800512000EC2001202FB59
:08026600E4F50CF50FF50D2283
:0100210022BC
:0100220022BB
:10029E00E4FDFCC3ED9FEC9E5017E4FBFAD2FF0B7E
:1002AE00BB00010ABA03F6BBE8F30DBD00010C80DA
:0102BE00E25D
:0102BF00221C
:0C02C800010800010900010A00010B0000
:100148007F147E0012029E53A33F53A5FC53A4CFF5
:1001580053A2CF000000000020B4057508018006F6
:1001680085080EE4F50820B20575090180068509A1
:100178000FE4F509209705750A018006850A0CE445
:10018800F50A209205750B018006850B0DE4F50B29
:0C01980043A38043A50243A42043A220FF
:0101A4002238
:03001E008F1E2210
:04001600751F192217
:03000300020026D2
:03002600C289325A
:03000B0002002EC2
:03002E00C28D324E
:0300130002003EAA
:03003E00C28B3240
:03001B000200469A
:03004600C28F3234
:03002300020006D2
:05000600C299C298320E
:03002B000202DFEF
:1002DF00C0E0C0D0C2CFD202D3E51E940074809488
:0C02EF00804004B295151ED0D0D0E03243
:03003B0002002997
:0100290032A4
:0300430002002A8E
:01002A0032A3
:03004B000200317F
:01003100329C
:0300530002003276
:01003200329B
:0A02D4000810010204081020408009
:1000E200EDFB7A0064017004C296D291EB64024A7D
:1000F2007004D296C291E5105F6004D2948002C26D
:1001020094E5115F6004D2B48002C2B4E5125F606C
:1001120004D2B58002C2B5E5135F6004D2978002B3
:10012200C297E5145F6004D2B68002C2B6E5155FDD
:100132006004D2928002C292E5165F6004D2B2805D
:0601420002C2B2C29322CA
:0401A5008F188D1909
:1001A900E4F51AC3E51A9410748094A75042E4F553
:1001B9001BC3E51B94327480948050207D02AF18D4
:1001C9001200E27F017E0012029E7D01AF1912002A
:1001D900E27F017E0012029E051B80D57F327E00E0
:1001E90012029E120148E50F64016004051A80B3EA
:0101F90022E3
:05000E00D296D2912200
:1000620002026EE493A3F8E493A34003F68001F244
:1000720008DFF48029E493A3F85407240CC8C3339F
:10008200C4540F4420C8834004F456800146F6DF6E
:10009200E4800B01020408102040809002C0E47E3C
:1000A200019360BCA3FF543F30E509541FFEE49363
:1000B200A360010ECF54C025E060A840B8E493A32A
:1000C200FAE493A3F8E493A3C8C582C8CAC583CA55
:1000D200F0A3C8C582C8CAC583CADFE9DEE780BE0D
:0102DE00001F
:00000001FF
