:03000000020056A5
:0C005600787FE4F6D8FD75812002009D43
:10018300D2FF75D803C2DCC2DB0000000000D2DA64
:100193000000000000000000000075A2AA75A3AAD9
:1001A300D29212024C75CDF185CDCB75CC9A85CC0C
:0801B300CAD2CAD2ADD2AF22BC
:0100120022CB
:10024C0053A33C43A38275A50043A52A53A20F4395
:09025C00A2A053A4CF43A4202268
:03027B000113006C
:1001BB00120183120012E5F7543F44C0F5F7C295C4
:1001CB007FF47E0112020ED290D2FF1201EB1202CB
:1001DB009A12001912001A7D717F3F12014880E9B3
:1001EB00300104C2010513C3E51394057480948098
:1001FB00401075A28A7F147E0012020E12028C75BB
:02020B00176476
:01020D0022CE
:0A029A00E5166401700375A2AA22A4
:0100190022C4
:01001A0022C3
:10020E00E4FDFCC3ED9FEC9E5017E4FBFAD2FF0B0E
:10021E00BB00010ABA03F6BBE8F30DBD00010C806A
:01022E00E2ED
:01022F0022AC
:03027E0001150067
:0D028C0020920475150122851516E4F51564
:010299002242
:030016008F17221F
:04000E007518192226
:0300030002001EDA
:03001E00C2893262
:03000B00020026CA
:03002600C28D3256
:0300130002002EBA
:03002E00C28B3250
:03001B0002003EA2
:03003E00C28F323C
:03002300020006D2
:05000600C299C298320E
:03002B000202309E
:10023000C0E0C0D0C2CFD201D3E51794007480943F
:0C024000804004B2951517D0D0D0E032F9
:03003B000200219F
:0100210032AC
:0300430002002296
:0100220032AB
:03004B0002002987
:0100290032A4
:0300530002002A7E
:01002A0032A3
:0A0281000808010204081020408064
:1000E200EDFB7A0064017004C296D291EB64024A7D
:1000F2007004D296C291E5085F6004D2948002C275
:1001020094E5095F6004D2B48002C2B4E50A5F607C
:1001120004D2B58002C2B5E50B5F6004D2978002BB
:10012200C297E50C5F6004D2B68002C2B6E50D5FED
:100132006004D2928002C292E50E5F6004D2B28065
:0601420002C2B2C29322CA
:040148008F108D1176
:10014C00E4F512AF12E4FCFDFE7B807A84791EF894
:10015C00D312026540207D02AF101200E27F017EB7
:10016C000012020E7D01AF111200E27F017E00121F
:06017C00020E051280CD09
:01018200225A
:100062000201BBE493A3F8E493A34003F68001F2F8
:1000720008DFF48029E493A3F85407240CC8C3339F
:10008200C4540F4420C8834004F456800146F6DF6E
:10009200E4800B010204081020408090027BE47E81
:1000A200019360BCA3FF543F30E509541FFEE49363
:1000B200A360010ECF54C025E060A840B8E493A32A
:1000C200FAE493A3F8E493A3C8C582C8CAC583CA55
:1000D200F0A3C8C582C8CAC583CADFE9DEE780BE0D
:01028B000072
:10026500EB9FF5F0EA9E42F0E99D42F0EC6480C810
:0602750064809845F022B0
:00000001FF
