:0300000002003BC0
:0C003B00787FE4F6D8FD75812002008279
:1000C700D2FF75D803C2DCC2DB0000000000D2DA21
:1000D7000000000000000000000075A2AA75A3AA96
:1000E700D29275CDF185CDCB75CC9A85CCCAD2CAC3
:0500F700D2ADD2AF22E2
:01016B002271
:0301600001080093
:100003001200C712016BE5F7543F44C0F5F77509B9
:1000130001C295C294D292C290D291C296D2FF12DB
:0D002300013912011C12016C12016D80F0F8
:10013900300004C2000508C3E50894057480948062
:08014900400675A28A12015262
:01015100228B
:10011C00E5096401700DE50B640170036309FF755B
:0D012C00A2AA22E50B640170036309FF2203
:01016C002270
:01016D00226F
:1000FC00E4FDFCC3ED9FEC9E5015E4FBFA0BBB003A
:0F010C00010ABA03F8BBE8F50DBD00010C80E451
:01011B0022C1
:01016E00226E
:03016300010A008E
:0D015200209204750A0122850A0BE4F50ACB
:01015F00227D
:030030008F0C2210
:04016700750D1922D7
:10004700020003E493A3F8E493A34003F68001F2CC
:1000570008DFF48029E493A3F85407240CC8C333BA
:10006700C4540F4420C8834004F456800146F6DF89
:10007700E4800B0102040810204080900160E47EB8
:10008700019360BCA3FF543F30E509541FFEE4937E
:10009700A360010ECF54C025E060A840B8E493A345
:1000A700FAE493A3F8E493A3C8C582C8CAC583CA70
:1000B700F0A3C8C582C8CAC583CADFE9DEE780BE28
:010166000098
:00000001FF
