:03000000020056A5
:0C005600787FE4F6D8FD75812002009D43
:10014800D2FF75D803C2DCC2DB0000000000D2DA9F
:100158000000000000000000000075A2AA75A3AA14
:1001680012022812029D12029075CDFC85CDCB7526
:0C017800CC6685CCCAD2CAD2ADD2AF2270
:01001A0022C3
:1002280053A33C43A38275A50043A52A53A20F43B9
:09023800A2A053A4CF43A420228C
:0D02900053A2CF43A22053A3FC43A302229C
:0D029D0053A5FC53A4CF53A33F53A2CF227F
:06026D0001140001130062
:1001BF0012014812001AE5F7543F44C0F5F7C295F3
:1001CF007FF47E011201ECC290C294C292D2FF1250
:0D01DF00024112028112002112002280F064
:10024100300104C2010513C3E51394057480948041
:05025100400312020E43
:010256002285
:0F028100E51664017005B292751764E4F5162254
:0100210022BC
:0100220022BB
:1001EC00E4FDFCC3ED9FEC9E5017E4FBFAD2FF0B31
:1001FC00BB00010ABA03F6BBE8F30DBD00010C808D
:01020C00E20F
:01020D0022CE
:0302730001150072
:10020E0053A33F00000000002097057515018006DE
:09021E00851516E4F51543A380D3
:0102270022B4
:03001E008F172217
:04001600751819221E
:03000300020026D2
:03002600C289325A
:03000B0002002EC2
:03002E00C28D324E
:0300130002003EAA
:03003E00C28B3240
:03001B000200469A
:03004600C28F3234
:03002300020006D2
:05000600C299C298320E
:03002B0002000EC2
:05000E00C2CFD2013257
:03003B0002002997
:0100290032A4
:0300430002002A8E
:01002A0032A3
:03004B000200317F
:01003100329C
:0300530002003276
:01003200329B
:0A027600080801020408102040806F
:1000E200EDFB7A0064017004C296D291EB64024A7D
:1000F2007004D296C291E5085F6004D2948002C275
:1001020094E5095F6004D2B48002C2B4E50A5F607C
:1001120004D2B58002C2B5E50B5F6004D2978002BB
:10012200C297E50C5F6004D2B68002C2B6E50D5FED
:100132006004D2928002C292E50E5F6004D2B28065
:0601420002C2B2C29322CA
:040184008F108D113A
:10018800E4F512AF12E4FCFDFE7B807A84791EF858
:10019800D312025740207D02AF101200E27F017E89
:1001A800001201EC7D01AF111200E27F017E001206
:0601B80001EC051280CDF0
:0101BE00221E
:100062000201BFE493A3F8E493A34003F68001F2F4
:1000720008DFF48029E493A3F85407240CC8C3339F
:10008200C4540F4420C8834004F456800146F6DF6E
:10009200E4800B010204081020408090026DE47E8F
:1000A200019360BCA3FF543F30E509541FFEE49363
:1000B200A360010ECF54C025E060A840B8E493A32A
:1000C200FAE493A3F8E493A3C8C582C8CAC583CA55
:1000D200F0A3C8C582C8CAC583CADFE9DEE780BE0D
:01028000007D
:10025700EB9FF5F0EA9E42F0E99D42F0EC6480C81E
:0602670064809845F022BE
:00000001FF
