:03000000020056A5
:0C005600787FE4F6D8FD75812002009D43
:10018300D2FF75D803C2DCC2DB0000000000D2DA64
:100193000000000000000000000075A2AA75A3AAD9
:1001A300D29212024075CDF185CDCB75CC9A85CC18
:0801B300CAD2CAD2ADD2AF22BC
:0100120022CB
:1002400053A33C43A38275A50043A52A53A20F43A1
:09025000A2A053A4CF43A4202274
:030288000117005B
:1001BB00120183120012E5F7543F44C0F5F7C295C4
:1001CB007FF47E011201E8C290C294D292D2FF1248
:0D01DB00025912029912001912001A80F048
:10025900300104C2010517C3E51794057480948021
:0802690040061202267515641F
:01027100226A
:0C029900E51464017002B292E4F5142236
:0100190022C4
:01001A0022C3
:1001E800E4FDFCC3ED9FEC9E5017E4FBFAD2FF0B35
:1001F800BB00010ABA03F6BBE8F30DBD00010C8091
:01020800E213
:0102090022D2
:03028B000113005C
:1002260075A28A0000000000209205751301800661
:09023600851314E4F51375A2AA66
:01023F00229C
:030016008F152221
:04000E007516192228
:0300030002001EDA
:03001E00C2893262
:03000B00020026CA
:03002600C28D3256
:0300130002002EBA
:03002E00C28B3250
:03001B0002003EA2
:03003E00C28F323C
:03002300020006D2
:05000600C299C298320E
:03002B0002020AC4
:10020A00C0E0C0D0C2CFD201D3E515940074809467
:0C021A00804004B2951515D0D0D0E03221
:03003B000200219F
:0100210032AC
:0300430002002296
:0100220032AB
:03004B0002002987
:0100290032A4
:0300530002002A7E
:01002A0032A3
:0A028E000808010204081020408057
:1000E200EDFB7A0064017004C296D291EB64024A7D
:1000F2007004D296C291E5085F6004D2948002C275
:1001020094E5095F6004D2B48002C2B4E50A5F607C
:1001120004D2B58002C2B5E50B5F6004D2978002BB
:10012200C297E50C5F6004D2B68002C2B6E50D5FED
:100132006004D2928002C292E50E5F6004D2B28065
:0601420002C2B2C29322CA
:040148008F108D1176
:10014C00E4F512AF12E4FCFDFE7B807A84791EF894
:10015C00D312027240207D02AF101200E27F017EAA
:10016C00001201E87D01AF111200E27F017E001246
:06017C0001E8051280CD30
:01018200225A
:100062000201BBE493A3F8E493A34003F68001F2F8
:1000720008DFF48029E493A3F85407240CC8C3339F
:10008200C4540F4420C8834004F456800146F6DF6E
:10009200E4800B0102040810204080900288E47E74
:1000A200019360BCA3FF543F30E509541FFEE49363
:1000B200A360010ECF54C025E060A840B8E493A32A
:1000C200FAE493A3F8E493A3C8C582C8CAC583CA55
:1000D200F0A3C8C582C8CAC583CADFE9DEE780BE0D
:010298000065
:10027200EB9FF5F0EA9E42F0E99D42F0EC6480C803
:0602820064809845F022A3
:00000001FF
