:03000000020056A5
:0C005600787FE4F6D8FD75812002009D43
:1001A500D2FF75D803C2DCC2DB0000000000D2DA42
:1001B5000000000000000000000075A2AA75A3AAB7
:1001C5001202BE12031012030375CDFC85CDCB754B
:0C01D500CC6685CCCAD2CAD2ADD2AF2213
:0100120022CB
:1002BE0053A33C43A38275A50043A52A53A20F4323
:0902CE00A2A053A4CF43A42022F6
:0D03030053A2CF43A22053A3FC43A3022228
:0D03100053A5FC53A4CF53A33F53A2CF220B
:06026B00011C00011B0054
:10021C001201A5120012E5F7543F44C0F5F7C29540
:10022C007FF47E01120249C290C294C292D2FF1294
:0D023C0002D71202A412001912001A80F05D
:1002D700300104C201051BC3E51B9405748094809B
:0502E700400312014874
:0102EC0022EF
:1002A400E50C64017005B292751DE8E50F640170F8
:0A02B40005B294751DE8E4F50C2274
:0100190022C4
:01001A0022C3
:10024900E4FDFCC3ED9FEC9E5017E4FBFAD2FF0BD3
:10025900BB00010ABA03F6BBE8F30DBD00010C802F
:01026900E2B2
:01026A002271
:0C027100010800010900010A00010B0057
:100148007F147E0012024953A33F53A5FC53A4CF4A
:1001580053A2CF000000000020B4057508018006F6
:1001680085080EE4F50820B20575090180068509A1
:100178000FE4F509209705750A018006850A0CE445
:10018800F50A209205750B018006850B0DE4F50B29
:0C01980043A38043A50243A42043A220FF
:0101A4002238
:030016008F1D2219
:04000E00751E192220
:0300030002001EDA
:03001E00C2893262
:03000B00020026CA
:03002600C28D3256
:0300130002002EBA
:03002E00C28B3250
:03001B0002003EA2
:03003E00C28F323C
:03002300020006D2
:05000600C299C298320E
:03002B0002028846
:10028800C0E0C0D0C2CFD201D3E51D9400748094E1
:0C029800804004B295151DD0D0D0E0329B
:03003B000200219F
:0100210032AC
:0300430002002296
:0100220032AB
:03004B0002002987
:0100290032A4
:0300530002002A7E
:01002A0032A3
:0A027D000810010204081020408060
:1000E200EDFB7A0064017004C296D291EB64024A7D
:1000F2007004D296C291E5105F6004D2948002C26D
:1001020094E5115F6004D2B48002C2B4E5125F606C
:1001120004D2B58002C2B5E5135F6004D2978002B3
:10012200C297E5145F6004D2B68002C2B6E5155FDD
:100132006004D2928002C292E5165F6004D2B2805D
:0601420002C2B2C29322CA
:0401E1008F188D19CD
:1001E500E4F51AAF1AE4FCFDFE7B807A84791EF8EB
:1001F500D31202ED40207D02AF181200E27F017E8E
:10020500001202497D01AF191200E27F017E001242
:060215000249051A80CD2C
:01021B0022C0
:1000620002021CE493A3F8E493A34003F68001F296
:1000720008DFF48029E493A3F85407240CC8C3339F
:10008200C4540F4420C8834004F456800146F6DF6E
:10009200E4800B010204081020408090026BE47E91
:1000A200019360BCA3FF543F30E509541FFEE49363
:1000B200A360010ECF54C025E060A840B8E493A32A
:1000C200FAE493A3F8E493A3C8C582C8CAC583CA55
:1000D200F0A3C8C582C8CAC583CADFE9DEE780BE0D
:010287000076
:1002ED00EB9FF5F0EA9E42F0E99D42F0EC6480C888
:0602FD0064809845F02228
:00000001FF
