:03000000020056A5
:0C005600787FE4F6D8FD75812002009D43
:10023600D2FF75D803C2DCC2DB0000000000D2DAB0
:100246000000000000000000000075A2AA75A3AA25
:100256001202FF12033B12032E75CDFC85CDCB7522
:0C026600CC6685CCCAD2CAD2ADD2AF2281
:0100190022C4
:1002FF0053A33C43A38275A50043A52A53A20F43E2
:09030F00A2A053A4CF43A42022B4
:0D032E0053A2CF43A22053A3FC43A30222FD
:0D033B0053A5FC53A4CF53A33F53A2CF22E0
:0802C400011D00011C00C10036
:10027200120236120019E5F7543F44C0F5F7C29551
:100282007FF47E011202A2C290C294C2921202FFB5
:10029200D2FF1203181201F312001A12002180F089
:10031800300204C202051CC3E51C94057480948055
:05032800400312014832
:01032D0022AD
:1001F300E50C64017005B292751EE8E50F640170A9
:100203001F1202FF751EE820000B7D717F3F120154
:10021300A5D200800512000EC20012033B12032E6A
:10022300E50E64017005B294751EE8E4F50EF50C55
:03023300F50F22A2
:01001A0022C3
:0100210022BC
:1002A200E4FDFCC3ED9FEC9E5017E4FBFAD2FF0B7A
:1002B200BB00010ABA03F6BBE8F30DBD00010C80D6
:0102C200E259
:0102C3002218
:0C02CC00010800010900010A00010B00FC
:100148007F147E001202A253A33F53A5FC53A4CFF1
:1001580053A2CF000000000020B4057508018006F6
:1001680085080EE4F50820B20575090180068509A1
:100178000FE4F509209705750A018006850A0CE445
:10018800F50A209205750B018006850B0DE4F50B29
:0C01980043A38043A50243A42043A220FF
:0101A4002238
:03000300020016E2
:03001600C289326A
:03000B0002001ED2
:03001E00C28D325E
:03001300020026C2
:03002600C28B3258
:03001B0002002EB2
:03002E00C28F324C
:03002300020006D2
:05000600C299C298320E
:03002B000202E3EB
:1002E300C0E0C0D0C2CFD202D3E51E940074809484
:0C02F300804004B295151ED0D0D0E0323F
:03003B000200229E
:0100220032AB
:030043000200298F
:0100290032A4
:03004B0002002A86
:01002A0032A3
:0300530002003177
:01003100329C
:0A02D8000810010204081020408005
:1000E200EDFB7A0064017004C296D291EB64024A7D
:1000F2007004D296C291E5105F6004D2948002C26D
:1001020094E5115F6004D2B48002C2B4E5125F606C
:1001120004D2B58002C2B5E5135F6004D2978002B3
:10012200C297E5145F6004D2B68002C2B6E5155FDD
:100132006004D2928002C292E5165F6004D2B2805D
:0601420002C2B2C29322CA
:0401A5008F188D1909
:1001A900E4F51AC3E51A94E874809483503BE4F5A6
:1001B9001BC3E51B94647480948050207D02AF18A2
:1001C9001200E27F017E001202A27D01AF19120026
:1001D900E27F017E001202A2051B80D5120148E5CB
:0901E9000F64016004051A80BADC
:0101F20022EA
:05000E00D296D2912200
:10006200020272E493A3F8E493A34003F68001F240
:1000720008DFF48029E493A3F85407240CC8C3339F
:10008200C4540F4420C8834004F456800146F6DF6E
:10009200E4800B01020408102040809002C4E47E38
:1000A200019360BCA3FF543F30E509541FFEE49363
:1000B200A360010ECF54C025E060A840B8E493A32A
:1000C200FAE493A3F8E493A3C8C582C8CAC583CA55
:1000D200F0A3C8C582C8CAC583CADFE9DEE780BE0D
:0102E200001B
:00000001FF
